:100000000C945D000C9485000C9485000C94850084
:100010000C9485000C9485000C9485000C9485004C
:100020000C9485000C9485000C9485000C9485003C
:100030000C9485000C9485000C9485000C9485002C
:100040000C9444050C9485000C9412050C94EC045B
:100050000C9485000C9485000C9485000C9485000C
:100060000C9485000C94850000000008000201003B
:100070000003040700000000000000000000000072
:10008000250028002B0000000000240027002A0083
:10009000040404040404040402020202020203032E
:1000A0000303030301020408102040800102040836
:1000B00010200102040810208E0511241FBECFEF6E
:1000C000D8E0DEBFCDBF11E0A0E0B1E0E2E0FAE1B0
:1000D00002C005900D92A835B107D9F722E0A8E536
:1000E000B1E001C01D92A632B207E1F710E0CDE504
:1000F000D0E004C02197FE010E94210ACC35D1072F
:10010000C9F70E94D9050C94FF0C0C94000090E0F4
:10011000FC01EC55FF4F249180579F4FFC018491C7
:10012000882399F090E0880F991FFC01EA57FF4F50
:10013000A591B491FC01E458FF4F859194918FB73C
:10014000F894EC91E22BEC938FBF0895AF92BF929D
:10015000CF92DF92EF92FF920F931F93CF93DF9393
:100160006C017B018B01040F151FEB015E01AE18C2
:10017000BF08C017D10759F06991D601ED91FC91E4
:100180000190F081E02DC6010995892B79F7C50111
:10019000DF91CF911F910F91FF90EF90DF90CF9063
:1001A000BF90AF900895FC01538D448D252F30E012
:1001B000842F90E0821B930B541710F0CF96089574
:1001C00001970895FC01918D828D981761F0A28DA1
:1001D000AE0FBF2FB11D5D968C91928D9F5F9F7367
:1001E000928F90E008958FEF9FEF0895FC01918D1D
:1001F000828D981731F0828DE80FF11D858D90E08A
:1002000008958FEF9FEF0895FC01918D228D892F26
:1002100090E0805C9F4F821B91098F73992708950E
:1002200081E791E00E94040121E0892B09F420E09C
:10023000822F089580E090E0892B29F00E94100120
:1002400081110C9400000895FC01A48DA80FB92F12
:10025000B11DA35ABF4F2C91848D90E001968F73EE
:100260009927848FA689B7892C93A089B1898C910D
:10027000837080648C93938D848D981306C002885C
:10028000F389E02D80818F7D80830895EF92FF9226
:100290000F931F93CF93DF93EC0181E0888F9B8DA9
:1002A0008C8D98131AC0E889F989808185FF15C063
:1002B0009FB7F894EE89FF896083E889F989808186
:1002C0008370806480839FBF81E090E0DF91CF9155
:1002D0001F910F91FF90EF900895F62E0B8D10E077
:1002E0000F5F1F4F0F731127E02E8C8D8E110CC0E6
:1002F0000FB607FCFACFE889F989808185FFF5CF31
:10030000CE010E942401F1CFEB8DEC0FFD2FF11DEA
:10031000E35AFF4FF0829FB7F8940B8FEA89FB896D
:1003200080818062CFCFCF93DF93EC01888D8823CB
:10033000B9F0AA89BB89E889F9898C9185FD03C048
:10034000808186FD0DC00FB607FCF7CF8C9185FF2D
:10035000F2CF808185FFEDCFCE010E942401E9CF4D
:10036000DF91CF91089590E0FC01E859FF4F24916F
:10037000FC01EC55FF4F3491FC01E057FF4FE49135
:10038000EE23C9F0222339F0233001F1A8F4213003
:1003900019F1223029F1F0E0EE0FFF1FE458FF4F72
:1003A000A591B4918FB7F894EC91611126C0309566
:1003B0003E233C938FBF08952730A9F02830C9F021
:1003C000243049F7809180008F7D03C080918000A8
:1003D0008F7780938000DFCF84B58F7784BDDBCFAC
:1003E00084B58F7DFBCF8091B0008F778093B00074
:1003F000D2CF8091B0008F7DF9CF3E2BDACF8064D1
:1004000080937C0080917A00806480937A00809150
:100410007A0086FDFCCF8091780090917900089554
:100420003FB7F8948091590190915A01A0915B01D6
:10043000B0915C0126B5A89B05C02F3F19F001962D
:10044000A11DB11D3FBFBA2FA92F982F8827BC012E
:10045000CD01620F711D811D911D42E0660F771F56
:10046000881F991F4A95D1F708958F929F92AF9256
:10047000BF92CF92DF92EF92FF924B015C010E94FC
:1004800010026B017C010E9410026C197D098E091B
:100490009F09683E734081059105A8F321E0821A07
:1004A0009108A108B10888EEC80E83E0D81EE11CAF
:1004B000F11C81149104A104B10429F7FF90EF907D
:1004C000DF90CF90BF90AF909F908F900895089548
:1004D00090E080E00895FC0101900020E9F7319759
:1004E000AF01481B590BBC018EE092E00C94A600B2
:1004F0008F929F92AF92BF920F931F93CF93DF93F0
:10050000CDB7DEB7A1970FB6F894DEBF0FBECDBF53
:1005100019A2423008F44AE08E010F5D1F4F842E6D
:10052000912CB12CA12CA50194010E94F009E62F79
:10053000B901CA01EA30F4F4E05DD801EE938D010F
:10054000232B242B252B79F790E080E0109719F0CE
:10055000CD010E946B02A1960FB6F894DEBF0FBECC
:10056000CDBFDF91CF911F910F91BF90AF909F9022
:100570008F900895E95CE1CFCF93DF93EC0160E0C9
:100580008E810E94B30161E08E810E94B30160E020
:100590008E810E94B3018BE891E00197F1F7DF9122
:1005A000CF910895CF92DF92EF92FF920F931F9316
:1005B000CF93DF936C017C0187E0E80EF11CD0E063
:1005C000C0E0062F10E0B8010C2E02C075956795AB
:1005D0000A94E2F76170F70181917F010E94B301F3
:1005E0002196C430D10579F7C601DF91CF911F91D3
:1005F0000F91FF90EF90DF90CF900C94BC02CF92C0
:10060000DF92EF92FF920F931F93CF93DF93EC0152
:10061000F62E642F8C810E94B3018D818F3F19F0DB
:1006200060E00E94B3010F2D10E08F8584FF25C08C
:100630006E0187E0C80ED11CF12CE12CB8010E2C04
:1006400002C0759567950A94E2F76170F601819191
:100650006F010E94B301FFEFEF1AFF0A88E0E8166E
:10066000F10461F7CE01DF91CF911F910F91FF90BF
:10067000EF90DF90CF900C94BC02B80184E07595A8
:1006800067958A95E1F7CE010E94D2026F2DCE01C7
:10069000DF91CF911F910F91FF90EF90DF90CF905E
:1006A0000C94D20240E0682F8EE092E00C94FF029E
:1006B000CF93DF93613029F090911D029860909361
:1006C0001D02609321021092220290E49093230273
:1006D00080932402805C80932502809112020E9404
:1006E0008700809113028F3F11F00E948700809154
:1006F00014020E948700CEE0D2E09E012E503240CC
:1007000080911D0284FD0AC084E090E021962817A4
:1007100039073CF48E810E948700EFCF88E090E09B
:10072000F5CF8BE39DE00197F1F760E08091120235
:100730000E94B30160E0809114020E94B301809195
:1007400013028F3F19F060E00E94B30180911D02F7
:1007500084FD39C063E08EE092E00E94D202CBE4D7
:10076000D6E4CE010197F1F763E08EE092E00E94BB
:10077000D2022197F1F763E08EE092E00E94D2026C
:1007800083E592E00197F1F762E08EE092E00E944B
:10079000D20280911D0280620E94520384E0809305
:1007A0001E028CE00E94520381E00E9452038BE300
:1007B0009FE10197F1F782E080931F0286E0DF91CD
:1007C000CF910C94520380620E9452038BE496E412
:1007D0000197F1F780911D0280620E94520383E528
:1007E00092E00197F1F780911D0280620E9452030E
:1007F000D0CF90912102691710F06FEF690FE62FAB
:10080000F0E0E25FFD4F9489890F80680C945203F9
:1008100041E00E94FF0281E090E008954F925F92D4
:100820006F927F928F929F92AF92BF92CF92DF9200
:10083000EF92FF920F931F93CF936B017C01742E65
:10084000AC019B010E94EB09882399F08EE191E0B5
:10085000CF911F910F91FF90EF90DF90CF90BF90BD
:10086000AF909F908F907F906F905F904F900C947F
:100870006B0246015701E894B7F82FEF3FEF4FE7BF
:100880005FE7C501B4010E94EB0981110DC02FEF94
:100890003FEF4FE75FE7C501B4010E94210818163A
:1008A0001CF482E291E0D4CF2FEF3FEF4FE75FE4FB
:1008B000C701B6010E94790918161CF486E291E07E
:1008C000C7CF2FEF3FEF4FE75FECC701B6010E94A4
:1008D000210887FDF3CF20E030E0A901C701B60170
:1008E0000E94210810E000E087FF0CC041E06DE2AB
:1008F0008EE092E00E94FF02F7FAF094F7F8F0948D
:1009000001E010E0C0E060E070E080E09FE37C1672
:1009100041F020E030E040E251E40E942608CF5F41
:10092000F6CFA70196010E94B5074B015C010E941A
:1009300098082B013C014AE00E947802080F191F19
:10094000CC23C9F1C301B2010E94C7089B01AC01CD
:10095000C501B4010E94B4074B015C0141E06EE2A5
:100960008EE092E00E94FF020F5F1F4FC15018F10E
:1009700020E030E040E251E4C501B4010E947E096C
:100980002B013C010E9498084B01B12CA12C4AE09C
:10099000C501B4010E947802080F191FC501B401F6
:1009A0000E94C7089B01AC01C301B2010E94B407B9
:1009B0004B015C01DBCFC801CF911F910F91FF90DC
:1009C000EF90DF90CF90BF90AF909F908F907F90EF
:1009D0006F905F904F9008951F920F920FB60F92F5
:1009E00011242F933F934F935F936F937F938F9334
:1009F0009F93AF93BF93EF93FF9381E791E00E94A2
:100A00002401FF91EF91BF91AF919F918F917F91C1
:100A10006F915F914F913F912F910F900FBE0F906B
:100A20001F9018951F920F920FB60F9211242F93BB
:100A30008F939F93EF93FF93E0918101F091820157
:100A40008081E0918701F091880182FD1BC0908137
:100A500080918A018F5F8F7320918B01821741F003
:100A6000E0918A01F0E0EF58FE4F958F80938A0164
:100A7000FF91EF919F918F912F910F900FBE0F904B
:100A80001F9018958081F4CF1F920F920FB60F928E
:100A900011242F933F938F939F93AF93BF93809194
:100AA0005D0190915E01A0915F01B0916001309174
:100AB000580123E0230F2D3758F50196A11DB11DD4
:100AC0002093580180935D0190935E01A0935F0194
:100AD000B09360018091590190915A01A0915B01FE
:100AE000B0915C010196A11DB11D809359019093B5
:100AF0005A01A0935B01B0935C01BF91AF919F91AC
:100B00008F913F912F910F900FBE0F901F901895CE
:100B100026E8230F0296A11DB11DD2CFE1E7F1E037
:100B20001382128288EE93E0A0E0B0E08483958384
:100B3000A683B78384E091E09183808385EC90E085
:100B40009587848784EC90E09787868780EC90E097
:100B5000918B808B81EC90E0938B828B82EC90E088
:100B6000958B848B86EC90E0978B868B118E128E02
:100B7000138E148EEEE0F2E01382128286E191E091
:100B80009183808382E084838FEF858383E08683F3
:100B900084E0878385E0808786E0818787E082879D
:100BA0001386148615861686178661E080E10C94FC
:100BB0005803CF93DF93CDB7DEB72A970FB6F894DB
:100BC000DEBF0FBECDBF789484B5826084BD84B58E
:100BD000816084BD85B5826085BD85B5816085BD38
:100BE00080916E00816080936E00109281008091F0
:100BF0008100826080938100809181008160809378
:100C00008100809180008160809380008091B1009C
:100C100084608093B1008091B00081608093B000C7
:100C200080917A00846080937A0080917A0082605B
:100C300080937A0080917A00816080937A0080911D
:100C40007A00806880937A001092C100E09181015F
:100C5000F091820182E08083E0917D01F0917E013C
:100C60001082E0917F01F09180018FEC80831092DF
:100C70008901E0918501F091860186E08083E09111
:100C80008301F0918401808180618083E091830100
:100C9000F0918401808188608083E0918301F091EC
:100CA0008401808180688083E0918301F0918401D8
:100CB00080818F7D808364E084E10E94580361E03D
:100CC00081E00E94F90364E670E080E090E00E9419
:100CD0003502CE0101961C012FB7F89480915D0179
:100CE00090915E01A0915F01B09160012FBF809350
:100CF0006D0190936E01A0936F01B093700180918C
:100D00001E02982F946090931E028C600E945203E2
:100D100060E080E00E94F9038AE291E00E946B02A9
:100D200094E6F92E10E000E083E00E94FF0108172E
:100D3000190708F48C018BE193E00197F1F7FA941D
:100D4000F110F2CF9801ACE4B4E00E94120A2FEF48
:100D500033E040E050E00E94F009CA01B9010E946E
:100D6000C70823EF34E045EB5FE30E9426080E94AA
:100D700098080E94C70820E030E046E652E40E944E
:100D80007E090E9498084B015C01BF928F939F924D
:100D90006F938DE391E09F938F933F922F920E94E8
:100DA000270A61E080E00E94F90384E491E00E9458
:100DB0006B02C1010E946B020FB6F894DEBF0FBE3A
:100DC000CDBF84EFC82EDD24D394E12C00E010E0E9
:100DD00080E00E94FF01BC0190E080E00E94C70813
:100DE0002B013C019701A8010E947909181614F4FF
:100DF0007201830191E0C91AD10851F720E030E077
:100E000040E85AE3B701C8010E947E0920E030E4BF
:100E10004CE955E40E947E0920E030E44CE155E4C1
:100E20000E94B40720E030E048EC52E40E9426081B
:100E300023EF34E045EB5FE30E9426086B017C0161
:100E4000C0926901D0926A01E0926B01F0926C014C
:100E5000B401C5010E94C708A70196010E947E093E
:100E60006B017C01C0926501D0926601E09267013E
:100E7000F092680160916D0170916E0180916F0137
:100E8000909170010E94C708A70196010E947E09F7
:100E900020E030E04AE754E40E94260820E030E0F9
:100EA00041E655E40E942608609361017093620157
:100EB000809363019093640161E088E00E94F903EC
:100EC00087E491E00E946B026091690170916A0170
:100ED00080916B0190916C0143E00E940E048AE4C2
:100EE00091E00E946B0262E080E00E94F9038CE4D2
:100EF00091E00E946B0260916501709166018091A2
:100F000067019091680143E00E940E048FE491E034
:100F10000E946B0263E080E00E94F90381E591E0AA
:100F20000E946B0260916101709162018091630186
:100F30009091640142E00E940E0484E591E00E94D9
:100F40006B0268EE73E080E090E00E94350280E082
:100F500090E0892B09F4C0CE0E941001882309F487
:100F6000BBCE0E940000B8CE5058BB27AA270E94D3
:100F7000CC070C943F090E94310938F00E943809CF
:100F800020F039F49F3F19F426F40C942E090EF446
:100F9000E095E7FB0C942809E92F0E94500958F3CB
:100FA000BA17620773078407950720F079F4A6F54E
:100FB0000C9472090EF4E0950B2EBA2FA02D0B01A4
:100FC000B90190010C01CA01A0011124FF27591B8E
:100FD00099F0593F50F4503E68F11A16F040A22F94
:100FE000232F342F4427585FF3CF46953795279505
:100FF000A795F0405395C9F77EF41F16BA0B620B04
:10100000730B840BBAF09150A1F0FF0FBB1F661F4A
:10101000771F881FC2F70EC0BA0F621F731F841F8D
:1010200048F4879577956795B795F7959E3F08F0B3
:10103000B0CF9395880F08F09927EE0F9795879575
:1010400008950E94040908F481E008950E943A0876
:101050000C943F090E94380958F00E94310940F071
:1010600029F45F3F29F00C94280951110C9473095D
:101070000C942E090E94500968F39923B1F355236B
:1010800091F3951B550BBB27AA276217730784079B
:1010900038F09F5F5F4F220F331F441FAA1FA9F331
:1010A00035D00E2E3AF0E0E832D091505040E6951F
:1010B000001CCAF72BD0FE2F29D0660F771F881F80
:1010C000BB1F261737074807AB07B0E809F0BB0B73
:1010D000802DBF01FF2793585F4F3AF09E3F510587
:1010E00078F00C9428090C9473095F3FE4F3983E60
:1010F000D4F3869577956795B795F7959F5FC9F770
:10110000880F911D9695879597F90895E1E0660FF0
:10111000771F881FBB1F621773078407BA0720F069
:10112000621B730B840BBA0BEE1F88F7E0950895D2
:101130000E94580988F09F5798F0B92F9927B75106
:10114000B0F0E1F0660F771F881F991F1AF0BA956B
:10115000C9F714C0B13091F00E947209B1E008954E
:101160000C947209672F782F8827B85F39F0B93F40
:10117000CCF3869577956795B395D9F73EF490951E
:101180008095709561957F4F8F4F9F4F0895E8949C
:1011900009C097FB3EF490958095709561957F4FBF
:1011A0008F4F9F4F9923A9F0F92F96E9BB2793956D
:1011B000F695879577956795B795F111F8CFFAF47D
:1011C000BB0F11F460FF1BC06F5F7F4F8F4F9F4FAE
:1011D00016C0882311F096E911C0772321F09EE80C
:1011E000872F762F05C0662371F096E8862F70E072
:1011F00060E02AF09A95660F771F881FDAF7880F4C
:101200009695879597F90895990F0008550FAA0BA1
:10121000E0E8FEEF16161706E807F907C0F0121609
:101220001306E407F50798F0621B730B840B950B0C
:1012300039F40A2661F0232B242B252B21F4089561
:101240000A2609F4A140A6958FEF811D811D0895FE
:1012500097F99F6780E870E060E008959FEF80EC69
:10126000089500240A94161617061806090608950C
:1012700000240A9412161306140605060895092E72
:101280000394000C11F4882352F0BB0F40F4BF2BE1
:1012900011F460FF04C06F5F7F4F8F4F9F4F089521
:1012A00057FD9058440F551F59F05F3F71F0479517
:1012B000880F97FB991F61F09F3F79F087950895FC
:1012C000121613061406551FF2CF4695F1DF08C01B
:1012D000161617061806991FF1CF86957105610538
:1012E00008940895E894BB2766277727CB0197F9E0
:1012F00008950E94040908F48FEF08950E9491094F
:101300000C943F090E94310938F00E94380920F0FE
:10131000952311F00C9428090C942E0911240C9497
:1013200073090E94500970F3959FC1F3950F50E027
:10133000551F629FF001729FBB27F00DB11D639F87
:10134000AA27F00DB11DAA1F649F6627B00DA11D2D
:10135000661F829F2227B00DA11D621F739FB00DD3
:10136000A11D621F839FA00D611D221F749F332743
:10137000A00D611D231F849F600D211D822F762FDC
:101380006A2F11249F5750409AF0F1F088234AF0B9
:10139000EE0FFF1FBB1F661F771F881F9150504025
:1013A000A9F79E3F510580F00C9428090C9473090D
:1013B0005F3FE4F3983ED4F3869577956795B795AC
:1013C000F795E7959F5FC1F7FE2B880F911D9695C6
:1013D000879597F908950E940409880B990B089541
:1013E000A1E21A2EAA1BBB1BFD010DC0AA1FBB1F29
:1013F000EE1FFF1FA217B307E407F50720F0A21B9B
:10140000B30BE40BF50B661F771F881F991F1A9407
:1014100069F760957095809590959B01AC01BD0131
:10142000CF010895A29FB001B39FC001A39F700D8B
:10143000811D1124911DB29F700D811D1124911DDC
:101440000895EE0FFF1F0590F491E02D0994AEE092
:10145000B0E0EDE2FAE00C94D60C0D891E8986E02E
:101460008C831A8309838FEF9FE79E838D83AE0160
:10147000475E5F4F6F89788DCE0101960E944A0AC0
:101480002F813885020F131FF80110822E96E4E099
:101490000C94F20CABE0B0E0E0E5FAE00C94C80C80
:1014A0007C013B018A01FC0117821682838181FF46
:1014B000C8C1CE0101965C01F7019381F30193FD50
:1014C000859193FF81913F01882309F453C18532AF
:1014D00039F493FD859193FF81913F01853229F481
:1014E000B70190E00E943A0CE7CF912C212C312CCF
:1014F000FFE1F31538F08B3211F190F4803209F1ED
:10150000833229F137FC3CC020ED280F2A3050F5FA
:1015100036FE20C08AE0989E200D1124922E06C02F
:101520008D3291F0803371F7689430F8F30193FDB8
:10153000859193FF81913F018111DACF21C0689499
:1015400031F8689432F8F2CF689433F8EFCF6894AA
:1015500034F8ECCFEAE02E9E200D1124222E689460
:1015600035F8E4CF8E3229F436FC04C1689436F89D
:10157000DDCF8C3619F4689437F8D8CF8836B1F2BD
:10158000982F9F7D95549330E0F08336A1F18337F7
:10159000C1F1833509F063C02801F2E04F0E511C00
:1015A000F801C080D180692D70E036FC02C06FEF79
:1015B0007FEFC6010E94240C4C01689437F8820129
:1015C0000AC00C5F1F4FFFE3F98388248394912C9A
:1015D0006501E89437F833FE2DC0522C8114910434
:1015E00071F5552009F468CFB70180E290E00E94C0
:1015F0003A0C5A94F6CFF801808189830E5F1F4F11
:10160000E4CF2801F2E04F0E511CF801C080D180D8
:10161000692D70E036FC02C06FEF7FEFC6010E94BB
:101620002F0C4C018201D5CFB70180E290E00E94DF
:101630003A0C2A942814190409F0B0F7CECFF60119
:1016400037FC859137FE81916F01B70190E00E94D0
:101650003A0C51105A94F1E08F1A9108BFCF84369A
:1016600019F0893609F077C0F80137FE6BC0608148
:101670007181828193810C5F1F4FF32DFF763F2E86
:1016800097FF09C090958095709561957F4F8F4F1A
:101690009F4F689437F82AE030E0A5010E946A0C59
:1016A000C82ECA188C2C432C36FE0CC0E89440F887
:1016B000C91440F434FE05C032FC03C0F32DFE7E95
:1016C0004F2E892C44FE95C0FE01EC0DF11D80814A
:1016D000803309F087C0242D297E422E842D887006
:1016E000582E43FC95C040FE8FC09C2C821418F4E9
:1016F0002C0C922C981844FE91C0B70180E390E026
:101700000E943A0C42FE09C088E790E041FE02C008
:1017100088E590E0B7010E943A0CC91408F48AC029
:10172000CA94D12C9FEFC91AD90ACA0CDB1CF60146
:1017300082916F01B70190E00E943A0CAC14BD0495
:10174000B1F74FCF60817181072E000C880B990B88
:101750000E5F1F4F92CFD32CE894D4F82AE030E0EC
:10176000853739F1232D297FD22E8F3601F148F4A8
:101770008835A9F0F701868197812B96E2E10C94D8
:10178000E40C803749F08837A9F7D4FE02C068948A
:10179000D2F820E130E00DC06894D4F8F6CF34FEE2
:1017A00003C0822F8660D82E20E132E002C028E0FC
:1017B00030E0F801D7FE0FC0608171818281938192
:1017C0000C5F1F4FA5010E946A0CC82ECA183D2C41
:1017D000E89437F867CF6081718190E080E00E5F18
:1017E0001F4FF0CF42FC02C0839478CF8394839440
:1017F00075CF842D867809F471CFF6CFB70180E2DA
:1018000090E00E943A0C83948214C0F3512C73CF61
:10181000522C5818821408F46ECFF8CF842D867895
:1018200009F47BCF8BE241FE80E247FC8DE2B701F9
:1018300090E071CFB70180E390E00E943A0C9A9457
:101840006CCF8FEF9FEF99CFFC01059061507040F6
:101850000110D8F7809590958E0F9F1F0895FC0179
:101860006150704001900110D8F7809590958E0FCF
:101870009F1F08950F931F93CF93DF93182F092F66
:10188000EB018B8181FD09C01FEF0FEF812F902F9E
:10189000DF91CF911F910F91089582FF14C02E8187
:1018A0003F818C819D81281739073CF4E881F981BB
:1018B000CF0101969983888310838E819F81019641
:1018C0009F838E83E3CFE885F985812F0995892B46
:1018D000A1F3DACFFA01AA27283051F1203181F1A2
:1018E000E8946F936E7F6E5F7F4F8F4F9F4FAF4F28
:1018F000B1E03ED0B4E03CD0670F781F891F9A1F3B
:10190000A11D680F791F8A1F911DA11D6A0F711DEE
:10191000811D911DA11D20D009F468943F912AE0FA
:10192000269F11243019305D3193DEF6CF010895E2
:10193000462F4770405D4193B3E00FD0C9F7F6CF13
:10194000462F4F70405D4A3318F0495D31FD4052DB
:10195000419302D0A9F7EACFB4E0A6959795879571
:1019600077956795BA95C9F7009761057105089550
:101970009B01AC010A2E06945795479537952795FC
:10198000BA95C9F7620F731F841F951FA01D089594
:101990002F923F924F925F926F927F928F929F927F
:1019A000AF92BF92CF92DF92EF92FF920F931F936D
:1019B000CF93DF93CDB7DEB7CA1BDB0B0FB6F8941E
:1019C000DEBF0FBECDBF09942A88398848885F845E
:1019D0006E847D848C849B84AA84B984C884DF80CF
:1019E000EE80FD800C811B81AA81B981CE0FD11DB3
:1019F0000FB6F894DEBF0FBECDBFED010895F89489
:021A0000FFCF16
:101A0200000000004601A600D30093010401E20099
:101A1200F600000000000804A600680267026E617A
:101A22006E00696E66006F766600534D4152542017
:101A3200454E45524759204D4554455200253033B5
:101A420075205600563D00493D004100503D00576B
:081A520000453D004B776800E0
:00000001FF
